:0400000007EF00F016
:0A0008005E8245ED0AF014EF0AF0E5
:100600000000D3EC0BF031EC0BF021502210D8B4E9
:100610000CEF03F00EEF03F003EF03F04250431032
:10062000D8B415EF03F017EF03F01DEF03F0010E40
:10063000A8EC09F0276E21EF03F0000EA8EC09F0FA
:10064000276E3A503B10D8B428EF03F02AEF03F09E
:1006500061EF03F00B0E2718D8A431EF03F033EF4E
:1006600003F052EF03F015501610D8A43AEF03F040
:100670003CEF03F052EF03F013501410D8A443EFF3
:1006800003F045EF03F052EF03F01F502010D8B4F1
:100690004CEF03F04FEF03F0010E50EF03F0000EAC
:1006A0001F6E206A1F502010D8B459EF03F05BEF83
:1006B00003F05FEF03F048EC06F061EF03F0D9ECD4
:1006C00007F038043910D8A468EF03F06AEF03F09C
:1006D000E6EF04F0000E436E000E426E09040A10AD
:1006E000D8A475EF03F077EF03F0C1EF03F0000E2D
:1006F000046E000E036E000E5D6E000E5C6E5C50AC
:10070000770FD96EDA6A2F0EDF6489EF03F08BEF73
:1007100003F0B0EF03F05C50770FD96EDA6A3A0E4F
:10072000DF6095EF03F097EF03F0B0EF03F00A0EF0
:100730000302F3CF59F0F4CF5AF00402F3505A26D3
:100740005C50770FD96EDA6ADF505B6E5B505926CA
:10075000000E5A22D00E5924036EFF0E5A20046E4A
:100760005C4A5D2A5D5009E1040E5C5CD8A0BBEFD9
:1007700003F0BDEF03F07FEF03F0000E0A6E000EF2
:10078000096E0E0E2718D8A4C8EF03F0CAEF03F0C5
:10079000F0EF03F0074A082A150E07180810D8A42E
:1007A000D4EF03F0D6EF03F0F0EF03F0034A042A8E
:1007B00004BEE4EF03F0100E035C270E0458D8A02B
:1007C000E4EF03F0E6EF03F0EAEF03F0000E046E4F
:1007D000000E036E000E086E000E076E1FEF04F091
:1007E0000D0E2718D8A4F7EF03F0F9EF03F01FEF71
:1007F00004F0054A062A150E05180610D8A403EFC2
:1008000004F005EF04F01FEF04F004BE10EF04F055
:10081000045008E10304D8A010EF04F012EF04F034
:1008200017EF04F00306D8A004061BEF04F0270E10
:10083000046E0F0E036E000E066E000E056E0B0E9C
:100840002718D8A426EF04F028EF04F08CEF04F06A
:1008500003C049F004C04AF0030E4C6EE80E4B6E24
:10086000B5EC08F04950576E100EAAEC0BF0000ED4
:100870004C6E640E4B6E03C049F004C04AF0B5ECF8
:1008800008F049C051F04AC052F0000E546E0A0EF2
:10089000536E16EC09F05150576E110EAAEC0BF086
:1008A000000E4C6E0A0E4B6E03C049F004C04AF0B5
:1008B000B5EC08F049C051F04AC052F0000E546E39
:1008C0000A0E536E16EC09F05150576E120EAAEC38
:1008D0000BF003C051F004C052F0000E546E0A0E2B
:1008E000536E16EC09F05150576E130EAAEC0BF034
:1008F000000E3B6E010E3A6E000E356E010E346E28
:10090000000E226E000E216E000E436E010E426E2E
:10091000000E046E000E036E03C049F004C04AF0DE
:10092000030E4C6EE80E4B6EB5EC08F04950280FE4
:10093000D96EDA6ADF50456E000E4C6E640E4B6E57
:1009400003C049F004C04AF0B5EC08F049C051F0CA
:100950004AC052F0000E546E0A0E536E16EC09F0A7
:100960005150280FD96EDA6ADF50466E000E4C6E79
:100970000A0E4B6E03C049F004C04AF0B5EC08F013
:1009800049C051F04AC052F0000E546E0A0E536E28
:1009900016EC09F05150280FD96EDA6ADF50476E15
:1009A00003C051F004C052F0000E546E0A0E536E94
:1009B00016EC09F05150280FD96EDA6ADF50486EF4
:1009C000450E496EE2EC09F003EF03F0000E436EB2
:1009D000010E426E0B500C10D8B4F1EF04F0F3EF9F
:1009E00004F007EF05F0100EDFEC0BF0236E110E94
:1009F000DFEC0BF0246E120EDFEC0BF0256E130E05
:100A0000DFEC0BF0266E000E0C6E000E0B6E0B0E64
:100A10002718D8A40EEF05F010EF05F040EF05F011
:100A200023C057F0100EAAEC0BF024C057F0110EA3
:100A3000AAEC0BF025C057F0120EAAEC0BF026C062
:100A400057F0130EAAEC0BF0236A246A256A266A73
:100A5000000E3B6E010E3A6E000E356E010E346EC6
:100A6000000E226E000E216E000E0C6E010E0B6E3B
:100A7000000E376E010E366E000E436E010E426E92
:100A80000D0E2718D8A447EF05F049EF05F05FEFEA
:100A900005F037BE57EF05F0375007E1040E365C1E
:100AA000D8B055EF05F057EF05F05BEF05F0364A8B
:100AB000372A5FEF05F0000E376E010E366E3604F2
:100AC0003710D8A466EF05F068EF05F098EF05F051
:100AD0002350280FD96EDA6ADF50456E2450280F54
:100AE000D96EDA6ADF50466E2550280FD96EDA6A61
:100AF000DF50476E2650280FD96EDA6ADF50100992
:100B0000486E0E0E2718D8A488EF05F08AEF05F07E
:100B1000E0EF04F0090E266090EF05F092EF05F08B
:100B200095EF05F0262AE0EF04F0266AE0EF04F0E6
:100B3000020E36183710D8A4A0EF05F0A2EF05F08A
:100B4000D2EF05F02350280FD96EDA6ADF50456ED8
:100B50002450280FD96EDA6ADF50466E2550280FD0
:100B6000D96EDA6ADF501009476E2650280FD96E09
:100B7000DA6ADF50486E0E0E2718D8A4C2EF05F0CF
:100B8000C4EF05F0E0EF04F0090E2560CAEF05F0B0
:100B9000CCEF05F0CFEF05F0252AE0EF04F0256A51
:100BA000E0EF04F0030E36183710D8A4DAEF05F0A2
:100BB000DCEF05F00CEF06F02350280FD96EDA6A4F
:100BC000DF50456E2450280FD96EDA6ADF501009C5
:100BD000466E2550280FD96EDA6ADF50476E2650D0
:100BE000280FD96EDA6ADF50486E0E0E2718D8A487
:100BF000FCEF05F0FEEF05F0E0EF04F0090E2460D5
:100C000004EF06F006EF06F009EF06F0242AE0EF05
:100C100004F0246AE0EF04F0040E36183710D8A46C
:100C200014EF06F016EF06F0E0EF04F02350280F63
:100C3000D96EDA6ADF501009456E2450280FD96E3C
:100C4000DA6ADF50466E2550280FD96EDA6ADF5017
:100C5000476E2650280FD96EDA6ADF50486E0E0EA6
:100C60002718D8A436EF06F038EF06F0E0EF04F0CE
:100C7000090E23603EEF06F040EF06F043EF06F06A
:100C8000232AE0EF04F0236AE0EF04F007EF00F01E
:100C90000D500E10D8A44FEF06F051EF06F055EFAF
:100CA00006F0870E496EE2EC09F013041410D8A484
:100CB0005CEF06F05EEF06F09BEF06F00B0E2718D8
:100CC000D8A465EF06F067EF06F09BEF06F0000E84
:100CD0001E6E000E1D6E000E226E000E216E000EA6
:100CE0000E6E000E0D6E000E106E000E0F6E000EDA
:100CF000206E000E1F6E000E146E000E136E23C0C9
:100D000057F0210EAAEC0BF024C057F0220EAAECEB
:100D10000BF025C057F0230EAAEC0BF026C057F0BD
:100D2000240EAAEC0BF0266A256A246A236A000EB8
:100D30003F6E010E3E6E0D0E2718D8A4A2EF06F0EE
:100D4000A4EF06F0D2EF06F0000E146E010E136E43
:100D5000210EDFEC0BF0236E220EDFEC0BF0246E85
:100D6000230EDFEC0BF0256E240EDFEC0BF0266E6D
:100D7000000E0E6E010E0D6E1EBECAEF06F01E5066
:100D800007E1040E1D5CD8B0C8EF06F0CAEF06F00C
:100D9000CEEF06F01D4A1E2AD2EF06F0000E1E6EA0
:100DA000010E1D6E0D040E10D8A4D9EF06F0DBEF76
:100DB00006F0D8EF07F01D041E10D8A4E2EF06F0ED
:100DC000E4EF06F019EF07F026C057F0240EAAEC66
:100DD0000BF02350280FD96EDA6ADF50456E24508D
:100DE000280FD96EDA6ADF50466E2550280FD96E6B
:100DF000DA6ADF50476E2650280FD96EDA6ADF5064
:100E00001009486E0E0E2718D8A409EF07F00BEF53
:100E100007F0D4EF07F0090E266011EF07F013EF8B
:100E200007F016EF07F0262AD4EF07F0266AD4EF72
:100E300007F0020E1D181E10D8A421EF07F023EFB3
:100E400007F058EF07F025C057F0230EAAEC0BF07F
:100E50002350280FD96EDA6ADF50456E2450280FD0
:100E6000D96EDA6ADF50466E2550280FD96EDA6ADD
:100E7000DF501009476E2650280FD96EDA6ADF500E
:100E8000486E0E0E2718D8A448EF07F04AEF07F077
:100E9000D4EF07F0090E256050EF07F052EF07F08E
:100EA00055EF07F0252AD4EF07F0256AD4EF07F0B5
:100EB000030E1D181E10D8A460EF07F062EF07F0B4
:100EC00097EF07F024C057F0220EAAEC0BF0235046
:100ED000280FD96EDA6ADF50456E2450280FD96E7C
:100EE000DA6ADF501009466E2550280FD96EDA6A8B
:100EF000DF50476E2650280FD96EDA6ADF50486EF1
:100F00000E0E2718D8A487EF07F089EF07F0D4EF6B
:100F100007F0090E24608FEF07F091EF07F094EFD0
:100F200007F0242AD4EF07F0246AD4EF07F0040E68
:100F30001D181E10D8A49FEF07F0A1EF07F0D4EF03
:100F400007F023C057F0210EAAEC0BF02350280F16
:100F5000D96EDA6ADF501009456E2450280FD96E19
:100F6000DA6ADF50466E2550280FD96EDA6ADF50F4
:100F7000476E2650280FD96EDA6ADF50486E0E0E83
:100F80002718D8A4C6EF07F0C8EF07F0D4EF07F092
:100F9000090E2360CEEF07F0D0EF07F0D3EF07F094
:100FA000232AD4EF07F0236A450E496EE2EC09F0DC
:100FB00012000F501010D8A4E0EF07F0E2EF07F096
:100FC000E6EF07F08B0E496EE2EC09F015041610FF
:100FD000D8A4EDEF07F0EFEF07F02EEF08F00B0EBF
:100FE0002718D8A4F6EF07F0F8EF07F02EEF08F077
:100FF0006DEC09F0000E1E6E000E1D6E000E226ECE
:10100000000E216E000E0E6E000E0D6E000E106EA4
:10101000000E0F6E000E206E000E1F6E000E166E7C
:10102000000E156E23C057F0100EAAEC0BF024C072
:1010300057F0110EAAEC0BF025C057F0120EAAECD7
:101040000BF026C057F0130EAAEC0BF0266A256AA7
:10105000246A236A000E416E010E406E0D0E2718A1
:10106000D8A435EF08F037EF08F072EF08F0000E63
:10107000166E010E156E40504110D8B442EF08F0C4
:1010800044EF08F058EF08F0100EDFEC0BF0236E81
:10109000110EDFEC0BF0246E120EDFEC0BF0256E60
:1010A000130EDFEC0BF0266E000E416E000E406E4C
:1010B000000E106E010E0F6E1EBE6AEF08F01E507D
:1010C00007E1040E1D5CD8B068EF08F06AEF08F085
:1010D0006EEF08F01D4A1E2A72EF08F0000E1E6E19
:1010E000010E1D6E0F041010D8A479EF08F07BEFED
:1010F00008F0B4EF08F01D041E10D8A482EF08F029
:1011000084EF08F088EF08F002EC0BF0B0EF08F085
:10111000020E1D181E10D8A490EF08F092EF08F0F0
:1011200096EF08F0D3EC0AF0B0EF08F0030E1D18AC
:101130001E10D8A49EEF08F0A0EF08F0A4EF08F06E
:10114000A4EC0AF0B0EF08F0040E1D181E10D8A48D
:10115000ACEF08F0AEEF08F0B0EF08F075EC0AF075
:10116000450E496EE2EC09F012004E6A4CBEBDEF2E
:1011700008F0BBEF08F0C3EF08F04B6C4C1ED8B082
:101180004C2A010E4E6E4ABECAEF08F0C8EF08F0B6
:10119000D0EF08F0496C4A1ED8B04A2A010E4E1A08
:1011A000000E506E000E4F6E4B504C10D8B4DBEF5B
:1011B00008F0DDEF08F005EF09F0010E4D6EE5EFE8
:1011C00008F0D8904B364C364D2A4CAEEAEF08F07A
:1011D000ECEF08F0E1EF08F0D8904F3650364B5066
:1011E000495C4C504A58D8A0F8EF08F0FAEF08F0E4
:1011F000FFEF08F04B50495E4C504A5A4F80D89050
:101200004C324B324D2EECEF08F04E50D8B40BEF71
:1012100009F00DEF09F011EF09F04F6C501ED8B036
:10122000502A4FC049F050C04AF01200566A52BED0
:101230001EEF09F01CEF09F024EF09F0516C521E6B
:10124000D8B0522A010E566E54BE2BEF09F029EF8A
:1012500009F02FEF09F0536C541ED8B0542A5350A4
:101260005410D8B436EF09F038EF09F05CEF09F00C
:10127000010E556E40EF09F0D89053365436552A7A
:1012800054AE45EF09F047EF09F03CEF09F0535039
:10129000515C54505258D8A050EF09F052EF09F069
:1012A00056EF09F05350515E5450525AD890543270
:1012B0005332552E47EF09F05650D8B462EF09F07B
:1012C00064EF09F068EF09F0516C521ED8B0522A51
:1012D00051C051F052C052F012000F01436B446BE9
:1012E0006B0E416FC00E426F080E456F100EDFECA3
:1012F0000BF0300F0F01466F110EDFEC0BF0300FCB
:101300000F01476F120EDFEC0BF0300F0F01486F2B
:10131000130EDFEC0BF0300F0F01496F210EDFECE5
:101320000BF0300F0F014A6F220EDFEC0BF0300F85
:101330000F014B6F230EDFEC0BF0300F0F014C6FE2
:10134000240EDFEC0BF0300F0F014D6F40871200C1
:10135000496E4904D8A4AFEF09F0B1EF09F0D6EF18
:1013600009F082500F0B0F0AD8B4B9EF09F0BBEFA8
:1013700009F0C8EF09F04450D8B4C1EF09F0C3EF49
:1013800009F0C8EF09F0446A82500F0BE1EF09F051
:1013900082500F0B0F0AD8A4D0EF09F0D2EF09F05A
:1013A000E0EF09F0010E446EE0EF09F04950D8A4D7
:1013B000DCEF09F0DEEF09F0E0EF09F0C4EF09F02F
:1013C0000F0E12004E6A49504E24D96EDA6ADF5071
:1013D000836E4EC04AF0010E4B6E4A2AF2EF09F0BE
:1013E000D8904B364A2EF0EF09F08050F00B4B109E
:1013F000806E030E4D6EE80E4C6E4C06D8A04D0666
:101400004C2806E14D28D8A408EF0AF00AEF0AF0AC
:10141000FDEF09F04E2A030E4E6411EF0AF013EFB0
:101420000AF0E3EF09F01200E00EF66E170EF76E09
:10143000000EF86E00EE83F010EE0CF00900F5CF10
:10144000EEFFE550E150FAE1840EF66E170EF76EEE
:10145000000EF86E00EE28F010EE21F00900F5CF36
:10146000EEFFE550E150FAE100EE60F0230EEE6A87
:10147000E806FDE100EE01F0270EEE6AE806FDE168
:101480005E905E92000101EF03F00600F2A24BEFC6
:101490000AF04DEF0AF073EF0AF034503510D8B46B
:1014A00054EF0AF056EF0AF065EF0AF021502210CF
:1014B000D8B45DEF0AF060EF0AF0010E61EF0AF0B8
:1014C000000E216E226A72EF0AF038503910D8B43B
:1014D0006CEF0AF06FEF0AF0010E70EF0AF0000EE9
:1014E000386E396AF2925E9211002350280FD96E3D
:1014F000DA6ADF501009456E2450280FD96EDA6A77
:10150000DF50466E2550280FD96EDA6ADF50476EDD
:101510002650280FD96EDA6ADF50486E0E0E271853
:10152000D8A495EF0AF097EF0AF0A3EF0AF0090E9E
:1015300023609DEF0AF09FEF0AF0A2EF0AF0232A42
:10154000A3EF0AF0236A12002350280FD96EDA6A3B
:10155000DF50456E2450280FD96EDA6ADF5010092B
:10156000466E2550280FD96EDA6ADF50476E265036
:10157000280FD96EDA6ADF50486E0E0E2718D8A4ED
:10158000C4EF0AF0C6EF0AF0D2EF0AF0090E2460A9
:10159000CCEF0AF0CEEF0AF0D1EF0AF0242AD2EF16
:1015A0000AF0246A12002350280FD96EDA6ADF503D
:1015B000456E2450280FD96EDA6ADF50466E2550EA
:1015C000280FD96EDA6ADF501009476E2650280FAF
:1015D000D96EDA6ADF50486E0E0E2718D8A4F3EFE2
:1015E0000AF0F5EF0AF001EF0BF0090E2560FBEFB2
:1015F0000AF0FDEF0AF000EF0BF0252A01EF0BF0E7
:10160000256A12002350280FD96EDA6ADF50456E22
:101610002450280FD96EDA6ADF50466E2550280F05
:10162000D96EDA6ADF50476E2650280FD96EDA6A13
:10163000DF501009486E0E0E2718D8A422EF0BF0C9
:1016400024EF0BF030EF0BF0090E26602AEF0BF0C1
:101650002CEF0BF02FEF0BF0262A30EF0BF0266A61
:1016600012005EEC0BF00009D8B439EF0BF03BEF41
:101670000BF05DEF0BF065C077F066C078F067C0E7
:1016800079F068C07AF000017B6B000E226E010ECB
:10169000216E000E3B6E000E3A6E000E396E010E8A
:1016A000386E000E356E000E346E000E0A6E010E9E
:1016B000096E000E0C6E010E0B6E120060AE63EF31
:1016C0000BF065EF0BF084EF0BF063CF60F064CFAD
:1016D00061F061CF62F062CF63F065CF64F066CFF6
:1016E00065F067CF66F068CF67F069CF68F06ACFC2
:1016F00069F06BCF6AF06CCF6BF06DCF6CF0609ED1
:10170000A490010E85EF0BF0000E120093949386C7
:101710001F0E6F166F8E800E6E18D8A492EF0BF00E
:1017200094EF0BF08BEF0BF0776AE10E706E1B0EEF
:10173000716E030E726E010E0D01D46F0F01026BFC
:10174000036B6B0E006FC00E016F1F0E6F166F5094
:10175000606A1200586E58C0A9FF57C0A8FFA69E25
:10176000A69CA684F29E550EA76EAA0EA76EA68210
:10177000F28EA1A8BEEF0BF0C0EF0BF0B9EF0BF0AB
:10178000A1981200E721CB6B2D6EEE23EF6F0100C5
:101790000100010001000100010001000100010041
:0517A00001E7E7E7E7A7
:1017A600FAEC0BF0E8EC0BF086EC0BF0F6EC0BF039
:1017B600F28EF28C93801200496E49C0A9FFA6945E
:1017C600A69EA69CA680A8501200956A9250F00B81
:1017D600926E8050F00B806E1200010001008F089F
:1017E60080E9E5086ECCF18CF292F28812009450F2
:0617F6000F09946E1200C1
:020000040020DA
:08000000FFFFFFFFFFFFFFFF00
:020000040030CA
:0E000000FF071F1FFF8285FF0FC00FE00F409C
:00000001FF
