:0400000007EF00F016
:0A0008005782AAED06F0C9EF05F0DB
:1006000000656E746572207468652070726F647521
:1006100063742073746F636B206D61782034206481
:10062000696769743A2000656E7465722074686544
:10063000207570646174652073746F636B206D61E5
:100640007820342064696769743A20005550444129
:100650005445445F53544F434B3A0050524F445516
:0B06600043545F49443A000A0D0000BB
:10066C00FAEC06F02DEC06F00009D8B440EF03F0DC
:10067C0042EF03F0D1EF03F0000E406E040E3F6E1C
:10068C003F50460FD96EDA6A3FC02CF0FC0E2C2678
:10069C002C502D0FE16EE26ADFCFE7FF3F4A402A74
:1006AC0040BE62EF03F0405009E1080E3F5CD8A059
:1006BC0062EF03F064EF03F046EF03F0316A210EB2
:1006CC00E8EC06F0300F326E220EE8EC06F0300F3C
:1006DC00336E230EE8EC06F0300F346E240EE8EC8B
:1006EC0006F0300F356E366A2D0E286E320E296EDE
:1006FC00FEEC05F028502910D8A487EF03F089EF01
:10070C0003F038EF03F04C0E296E94EC06F0000E5B
:10071C00406E000E3F6E3F50460FD96EDA6ADF50C6
:10072C00D3EC06F03F4A402A40BEA6EF03F04050FF
:10073C0009E1040E3F5CD8A0A6EF03F0A8EF03F08C
:10074C0091EF03F0670E296E94EC06F05B0E296EA8
:10075C0094EC06F0000E406E040E3F6E3F50460FB8
:10076C00D96EDA6ADF50D3EC06F03F4A402A40BE1D
:10077C00C9EF03F0405009E1080E3F5CD8A0C9EF67
:10078C0003F0CBEF03F0B4EF03F0670E296E94EC9B
:10079C0006F038EF03F023042410D8A4D8EF03F0AC
:1007AC00DAEF03F0E2EF03F0270E296E94EC06F07B
:1007BC0023682468F1EF03F023502410D8A4E9EF48
:1007CC0003F0EBEF03F0F1EF03F0010E296E94EC64
:1007DC0006F0DEEF03F05650D8B4F7EF03F0F9EF64
:1007EC0003F038EF03F05650D3EC06F00D0E56180C
:1007FC00D8B403EF04F005EF04F069EF04F04E50A9
:10080C004F10D8A40CEF04F00EEF04F038EF04F006
:10081C002F0E566414EF04F016EF04F070EF05F091
:10082C003A0E56601CEF04F01EEF04F070EF05F06A
:10083C0053BE2CEF04F0535007E1040E525CD8B0B9
:10084C002AEF04F02CEF04F070EF05F05250100F6B
:10085C00D96EDA6A56C0DFFF524A532A70EF05F0A0
:10086C0070EF05F04E044F10D8A43FEF04F041EFA9
:10087C0004F070EF05F02F0E566447EF04F049EFCB
:10088C0004F036EF04F03A0E56604FEF04F051EFDF
:10089C0004F036EF04F051BE5FEF04F0515007E165
:1008AC00040E505CD8B05DEF04F05FEF04F036EF4F
:1008BC0004F05050010FD96EDA6A56C0DFFF504A6F
:1008CC00512A70EF05F04E4A4F2A670E296E94ECB0
:1008DC0006F04E044F10D8A476EF04F078EF04F035
:1008EC007EEF04F0000E246E000E236E8CEF04F0ED
:1008FC00020E4E184F10D8A486EF04F088EF04F0C7
:10090C008CEF04F0000E246E010E236E2350241085
:10091C00D8A493EF04F095EF04F0FFEF04F0040E6D
:10092C0052185310D8B49DEF04F09FEF04F0FFEF72
:10093C0004F052505310D8A4A6EF04F0A8EF04F022
:10094C00C4EF04F0000E386E000E376E3750100FE7
:10095C00D96EDA6A300EDF6E374A382A38BEC0EFED
:10096C0004F0385009E1040E375CD8A0C0EF04F055
:10097C00C2EF04F0ACEF04F070EF05F0520453102A
:10098C00D8A4CBEF04F0CDEF04F0D7EF04F010C0F7
:10099C0013F0300E126E300E116E300E106E70EFB2
:1009AC0005F0020E52185310D8A4DFEF04F0E1EF5B
:1009BC0004F0EBEF04F010C012F011C013F0300E85
:1009CC00116E300E106E70EF05F0030E52185310AE
:1009DC00D8A4F3EF04F0F5EF04F070EF05F012C0BB
:1009EC0013F011C012F010C011F0300E106E70EF39
:1009FC0005F023042410D8A406EF05F008EF05F049
:100A0C0070EF05F0040E50185110D8B410EF05F02B
:100A1C0012EF05F070EF05F050505110D8A419EFFB
:100A2C0005F01BEF05F037EF05F0000E3A6E000EE7
:100A3C00396E3950010FD96EDA6A300EDF6E394AD1
:100A4C003A2A3ABE33EF05F03A5009E1040E395C0C
:100A5C00D8A033EF05F035EF05F01FEF05F070EF80
:100A6C0005F050045110D8A43EEF05F040EF05F00E
:100A7C004AEF05F001C004F0300E036E300E026E2A
:100A8C00300E016E70EF05F0020E50185110D8A404
:100A9C0052EF05F054EF05F05EEF05F001C003F0E6
:100AAC0002C004F0300E026E300E016E70EF05F0D5
:100ABC00030E50185110D8A466EF05F068EF05F03E
:100ACC0070EF05F003C004F002C003F001C002F0A7
:100ADC00300E016E020E4E184F10D8A478EF05F0B0
:100AEC007AEF05F0C4EF05F0000E4F6E000E4E6E5F
:100AFC00146A056A000E3C6E000E3B6E3B50100FE4
:100B0C00D96EDA6ADF50D3EC06F03B4A3C2A3CBE85
:100B1C0099EF05F03C5009E1050E3B5CD8A099EF2C
:100B2C0005F09BEF05F084EF05F0000E3E6E000E15
:100B3C003D6E3D50010FD96EDA6ADF50D3EC06F0F2
:100B4C003D4A3E2A3EBEB4EF05F03E5009E1050E8B
:100B5C003D5CD8A0B4EF05F0B6EF05F09FEF05F0C3
:100B6C00670E296E94EC06F079EC06F0000E536ECD
:100B7C00000E526E000E516E000E506E566A38EF1B
:100B8C0003F007EF00F0BC0EF66E0D0EF76E000EC4
:100B9C00F86E00EE74F010EE14F00900F5CFEEFFD5
:100BAC00E550E150FAE17E0EF66E0D0EF76E000E7A
:100BBC00F86E00EE01F010EE27F00900F5CFEEFF15
:100BCC00E550E150FAE100EE60F0140EEE6AE80632
:100BDC00FDE100EE41F0160EEE6AE806FDE15790DD
:100BEC005792000EF86E060EF76E000136EF03F00A
:100BFC0002EF06F0282A292A2950D96EDA6A2850E1
:100C0C00E16EE26ADE50E618D8A40FEF06F011EFA1
:100C1C0006F01CEF06F02850D96EDA6ADF50D8A423
:100C2C001AEF06F01CEF06F000EF06F02850D96E14
:100C3C00DA6ADF502A6E2950D96EDA6ADF502B6ED1
:100C4C002B502A5C286E296AD8A02906120060AEA7
:100C5C0032EF06F034EF06F053EF06F063CF41F0BD
:100C6C0064CF42F061CF43F062CF44F065CF45F0E2
:100C7C0066CF46F067CF47F068CF48F069CF49F0B0
:100C8C006ACF4AF06BCF4BF06CCF4CF06DCF4DF080
:100C9C00609EA490010E54EF06F0000E1200939487
:100CAC0093861F0E6F166F8E800E6E18D8A461EF90
:100CBC0006F063EF06F05AEF06F0776AE10E706EFD
:100CCC001B0E716E030E726E010E0D01D46F0F01AF
:100CDC00026B036B6B0E006FC00E016F1F0E6F1655
:100CEC006F50606A12000F01436B446B6B0E416FC7
:100CFC00C00E426F080E456F10C046FF11C047FF73
:100D0C0012C048FF13C049FF01C04AFF02C04BFF8D
:100D1C0003C04CFF04C04DFF408712009DEF06F04E
:100D2C0029C0F6FF0800F550D3EC06F0292A29C09B
:100D3C00F6FF0800F5500009D8A4A7EF06F0A9EFBC
:100D4C0006F096EF06F0120006009EAAB0EF06F031
:100D5C00B2EF06F0BDEF06F0ABA2B7EF06F0B9EFBD
:100D6C0006F0BAEF06F0AB92AECF56F09E9A5792C1
:100D7C001100303030300000000000000000000096
:100D8C000030303030000000000000000000000097
:090D9C0004000100010001000146
:100DA600286E9EA8D9EF06F0DBEF06F0D4EF06F02A
:100DB60028C0ADFF120030303030000000000000C7
:100DC60030303030000000000000286E28C0A9FF37
:100DD600A694A69EA69CA680A8501200948E949CCB
:100DE600AC84AB8EAB88810EAF6E9D8A120055EC3B
:0C0DF60006F0F1EC06F0F28EF28C120018
:020000040020DA
:08000000FFFFFFFFFFFFFFFF00
:020000040030CA
:0E000000FF071F1FFF8285FF0FC00FE00F409C
:00000001FF
